{
  "_format": "hh-sol-artifact-1",
  "contractName": "ModularCheck",
  "sourceName": "contracts/bigmodexp.sol",
  "abi": [
    {
      "inputs": [],
      "name": "checkResult",
      "outputs": [
        {
          "internalType": "uint256",
          "name": "",
          "type": "uint256"
        }
      ],
      "stateMutability": "view",
      "type": "function"
    },
    {
      "inputs": [
        {
          "internalType": "uint256",
          "name": "_b",
          "type": "uint256"
        },
        {
          "internalType": "uint256",
          "name": "_e",
          "type": "uint256"
        },
        {
          "internalType": "uint256",
          "name": "_m",
          "type": "uint256"
        }
      ],
      "name": "modExp",
      "outputs": [
        {
          "internalType": "uint256",
          "name": "result",
          "type": "uint256"
        }
      ],
      "stateMutability": "nonpayable",
      "type": "function"
    },
    {
      "inputs": [
        {
          "internalType": "uint256",
          "name": "_base",
          "type": "uint256"
        },
        {
          "internalType": "uint256",
          "name": "_exp",
          "type": "uint256"
        },
        {
          "internalType": "uint256",
          "name": "_modulus",
          "type": "uint256"
        }
      ],
      "name": "verify",
      "outputs": [],
      "stateMutability": "nonpayable",
      "type": "function"
    }
  ],
  "bytecode": "0x608060405234801561001057600080fd5b50610209806100206000396000f3fe608060405234801561001057600080fd5b50600436106100415760003560e01c806330430402146100465780633148f14f14610062578063a21d942f14610092575b600080fd5b610060600480360381019061005b9190610156565b6100b0565b005b61007c60048036038101906100779190610156565b6100c6565b60405161008991906101b8565b60405180910390f35b61009a610115565b6040516100a791906101b8565b60405180910390f35b6100bb8383836100c6565b600081905550505050565b600060405160208152602080820152602060408201528460608201528360808201528260a082015260c05160208160c08460006005600019f161010857600080fd5b8051925050509392505050565b60005481565b600080fd5b6000819050919050565b61013381610120565b811461013e57600080fd5b50565b6000813590506101508161012a565b92915050565b60008060006060848603121561016f5761016e61011b565b5b600061017d86828701610141565b935050602061018e86828701610141565b925050604061019f86828701610141565b9150509250925092565b6101b281610120565b82525050565b60006020820190506101cd60008301846101a9565b9291505056fea2646970667358221220604c70a7d5b0c61fcdf644b678ef40ebca07432ef151c3aefdfce19abf2aea0964736f6c63430008180033",
  "linkReferences": {},
  "deployedLinkReferences": {}
}