{
  "_format": "hh-sol-artifact-1",
  "contractName": "Identity",
  "sourceName": "contracts/datacopy.sol",
  "abi": [
    {
      "inputs": [
        {
          "internalType": "bytes",
          "name": "data",
          "type": "bytes"
        }
      ],
      "name": "callDatacopy",
      "outputs": [
        {
          "internalType": "bytes",
          "name": "",
          "type": "bytes"
        }
      ],
      "stateMutability": "nonpayable",
      "type": "function"
    },
    {
      "inputs": [],
      "name": "memoryStored",
      "outputs": [
        {
          "internalType": "bytes",
          "name": "",
          "type": "bytes"
        }
      ],
      "stateMutability": "view",
      "type": "function"
    }
  ],
  "bytecode": "0x608060405234801561001057600080fd5b506106ff806100206000396000f3fe608060405234801561001057600080fd5b50600436106100365760003560e01c80633eef73111461003b578063caa2603214610059575b600080fd5b610043610089565b604051610050919061022d565b60405180910390f35b610073600480360381019061006e9190610398565b610117565b604051610080919061022d565b60405180910390f35b6000805461009690610410565b80601f01602080910402602001604051908101604052809291908181526020018280546100c290610410565b801561010f5780601f106100e45761010080835404028352916020019161010f565b820191906000526020600020905b8154815290600101906020018083116100f257829003601f168201915b505050505081565b60606000825167ffffffffffffffff8111156101365761013561026d565b5b6040519080825280601f01601f1916602001820160405280156101685781602001600182028036833780820191505090505b509050825180602083018260208701600060045af161018357fe5b50806000908161019391906105f7565b5080915050919050565b600081519050919050565b600082825260208201905092915050565b60005b838110156101d75780820151818401526020810190506101bc565b60008484015250505050565b6000601f19601f8301169050919050565b60006101ff8261019d565b61020981856101a8565b93506102198185602086016101b9565b610222816101e3565b840191505092915050565b6000602082019050818103600083015261024781846101f4565b905092915050565b6000604051905090565b600080fd5b600080fd5b600080fd5b600080fd5b7f4e487b7100000000000000000000000000000000000000000000000000000000600052604160045260246000fd5b6102a5826101e3565b810181811067ffffffffffffffff821117156102c4576102c361026d565b5b80604052505050565b60006102d761024f565b90506102e3828261029c565b919050565b600067ffffffffffffffff8211156103035761030261026d565b5b61030c826101e3565b9050602081019050919050565b82818337600083830152505050565b600061033b610336846102e8565b6102cd565b90508281526020810184848401111561035757610356610268565b5b610362848285610319565b509392505050565b600082601f83011261037f5761037e610263565b5b813561038f848260208601610328565b91505092915050565b6000602082840312156103ae576103ad610259565b5b600082013567ffffffffffffffff8111156103cc576103cb61025e565b5b6103d88482850161036a565b91505092915050565b7f4e487b7100000000000000000000000000000000000000000000000000000000600052602260045260246000fd5b6000600282049050600182168061042857607f821691505b60208210810361043b5761043a6103e1565b5b50919050565b60008190508160005260206000209050919050565b60006020601f8301049050919050565b600082821b905092915050565b6000600883026104a37fffffffffffffffffffffffffffffffffffffffffffffffffffffffffffffffff82610466565b6104ad8683610466565b95508019841693508086168417925050509392505050565b6000819050919050565b6000819050919050565b60006104f46104ef6104ea846104c5565b6104cf565b6104c5565b9050919050565b6000819050919050565b61050e836104d9565b61052261051a826104fb565b848454610473565b825550505050565b600090565b61053761052a565b610542818484610505565b505050565b5b818110156105665761055b60008261052f565b600181019050610548565b5050565b601f8211156105ab5761057c81610441565b61058584610456565b81016020851015610594578190505b6105a86105a085610456565b830182610547565b50505b505050565b600082821c905092915050565b60006105ce600019846008026105b0565b1980831691505092915050565b60006105e783836105bd565b9150826002028217905092915050565b6106008261019d565b67ffffffffffffffff8111156106195761061861026d565b5b6106238254610410565b61062e82828561056a565b600060209050601f831160018114610661576000841561064f578287015190505b61065985826105db565b8655506106c1565b601f19841661066f86610441565b60005b8281101561069757848901518255600182019150602085019450602081019050610672565b868310156106b457848901516106b0601f8916826105bd565b8355505b6001600288020188555050505b50505050505056fea264697066735822122036c3de32f81a0b88a828e3d506e884d6fc3ca31245f825b3c55903287192d96d64736f6c63430008180033",
  "linkReferences": {},
  "deployedLinkReferences": {}
}