{
  "_format": "hh-sol-artifact-1",
  "contractName": "ECRECOVER",
  "sourceName": "contracts/ecrecover.sol",
  "abi": [
    {
      "inputs": [],
      "name": "verify",
      "outputs": [
        {
          "internalType": "bool",
          "name": "",
          "type": "bool"
        }
      ],
      "stateMutability": "view",
      "type": "function"
    }
  ],
  "bytecode": "0x60806040527312cb274aad8251c875c0bf6872b67d9983e53fdd6000806101000a81548173ffffffffffffffffffffffffffffffffffffffff021916908373ffffffffffffffffffffffffffffffffffffffff1602179055507fc51dac836bc7841a01c4b631fa620904fc8724d7f9f1d3c420f0e02adf229d5060001b600155601b600260006101000a81548160ff021916908360ff1602179055507f44287513919034a471a7dc2b2ed121f95984ae23b20f9637ba8dff471b6719ef60001b6003557f7d7dc30309a3baffbfd9342b97d0e804092c0aeb5821319aa732bc09146eafb460001b6004553480156100f557600080fd5b506101ed806101056000396000f3fe608060405234801561001057600080fd5b506004361061002b5760003560e01c8063fc735e9914610030575b600080fd5b61003861004e565b6040516100459190610122565b60405180910390f35b60008060009054906101000a900473ffffffffffffffffffffffffffffffffffffffff1673ffffffffffffffffffffffffffffffffffffffff1660018054600260009054906101000a900460ff16600354600454604051600081526020016040526040516100bf9493929190610172565b6020604051602081039080840390855afa1580156100e1573d6000803e3d6000fd5b5050506020604051035173ffffffffffffffffffffffffffffffffffffffff1614905090565b60008115159050919050565b61011c81610107565b82525050565b60006020820190506101376000830184610113565b92915050565b6000819050919050565b6101508161013d565b82525050565b600060ff82169050919050565b61016c81610156565b82525050565b60006080820190506101876000830187610147565b6101946020830186610163565b6101a16040830185610147565b6101ae6060830184610147565b9594505050505056fea26469706673582212205dc3205c87fbf813785635591ae22677ef523634bcad7bbabcec023ae3d9656364736f6c63430008180033",
  "linkReferences": {},
  "deployedLinkReferences": {}
}