{
  "_format": "hh-sol-artifact-1",
  "contractName": "GlobalVariables",
  "sourceName": "contracts/GlobalVariables.sol",
  "abi": [
    {
      "inputs": [],
      "name": "getBlockVariables",
      "outputs": [
        {
          "internalType": "uint256",
          "name": "",
          "type": "uint256"
        },
        {
          "internalType": "uint256",
          "name": "",
          "type": "uint256"
        },
        {
          "internalType": "bytes32",
          "name": "",
          "type": "bytes32"
        }
      ],
      "stateMutability": "view",
      "type": "function"
    }
  ],
  "bytecode": "0x608060405234801561001057600080fd5b50610172806100206000396000f3fe608060405234801561001057600080fd5b506004361061002b5760003560e01c8063e5ad04e714610030575b600080fd5b610038610050565b604051610047939291906100a2565b60405180910390f35b600080600043426001436100649190610108565b40925092509250909192565b6000819050919050565b61008381610070565b82525050565b6000819050919050565b61009c81610089565b82525050565b60006060820190506100b7600083018661007a565b6100c4602083018561007a565b6100d16040830184610093565b949350505050565b7f4e487b7100000000000000000000000000000000000000000000000000000000600052601160045260246000fd5b600061011382610070565b915061011e83610070565b9250828203905081811115610136576101356100d9565b5b9291505056fea26469706673582212200b464bfad6494e00980c8896209fdeb51408c812bed841aa0275686ca0ebf87464736f6c63430008180033",
  "linkReferences": {},
  "deployedLinkReferences": {}
}