{
  "_format": "hh-sol-artifact-1",
  "contractName": "OpCodes",
  "sourceName": "contracts/OpCodes.sol",
  "abi": [
    {
      "inputs": [],
      "payable": false,
      "stateMutability": "nonpayable",
      "type": "constructor"
    },
    {
      "constant": false,
      "inputs": [],
      "name": "test",
      "outputs": [],
      "payable": false,
      "stateMutability": "nonpayable",
      "type": "function"
    },
    {
      "constant": false,
      "inputs": [],
      "name": "test_invalid",
      "outputs": [],
      "payable": false,
      "stateMutability": "nonpayable",
      "type": "function"
    },
    {
      "constant": false,
      "inputs": [],
      "name": "test_revert",
      "outputs": [],
      "payable": false,
      "stateMutability": "nonpayable",
      "type": "function"
    },
    {
      "constant": false,
      "inputs": [],
      "name": "test_stop",
      "outputs": [],
      "payable": false,
      "stateMutability": "nonpayable",
      "type": "function"
    }
  ],
  "bytecode": "0x608060405234801561001057600080fd5b5060405161001d9061007e565b604051809103906000f080158015610039573d6000803e3d6000fd5b506000806101000a81548173ffffffffffffffffffffffffffffffffffffffff021916908373ffffffffffffffffffffffffffffffffffffffff16021790555061008b565b6101438061052283390190565b6104888061009a6000396000f3fe608060405234801561001057600080fd5b506004361061004c5760003560e01c806355313dea146100515780636d3d14161461005b578063b9d1e5aa14610065578063f8a8fd6d1461006f575b600080fd5b610059610079565b005b61006361007b565b005b61006d610080565b005b610077610082565b005b005b600080fd5bfe5b600160021a6002f35b600581101561009f5760018101905061008b565b5060065b60058111156100b7576001810190506100a3565b5060015b60058112156100cf576001810190506100bb565b5060065b60058113156100e7576001810190506100d3565b506002156100f457600051505b60405160208101602060048337505060405160208101602060048339505060405160208101602060048360003c50503660005b8181101561013e5760028152600181019050610127565b505060008020506000602060403e6010608060106040610123612710fa506020610123600af05060008060009054906101000a900473ffffffffffffffffffffffffffffffffffffffff169050600060405180807f697353616d654164647265737328616464726573732c61646472657373290000815250601e01905060405180910390209050600033905060405182815281600482015281602482015260648101604052602081604483600088611388f1505060405182815281600482015281602482015260648101604052602081604483600088611388f250506040518281528160048201528160248201526064810160405260208160448387611388f4505060006242004290507f50cb9fe53daa9737b786ab3646f04d0150dc50ef4e75f59509d83667ad5adb2060001b6040518082815260200191505060405180910390a07f50cb9fe53daa9737b786ab3646f04d0150dc50ef4e75f59509d83667ad5adb2060001b7f50cb9fe53daa9737b786ab3646f04d0150dc50ef4e75f59509d83667ad5adb2060001b6040518082815260200191505060405180910390a13373ffffffffffffffffffffffffffffffffffffffff1660001b7f50cb9fe53daa9737b786ab3646f04d0150dc50ef4e75f59509d83667ad5adb2060001b7f50cb9fe53daa9737b786ab3646f04d0150dc50ef4e75f59509d83667ad5adb2060001b6040518082815260200191505060405180910390a28060001b3373ffffffffffffffffffffffffffffffffffffffff1660001b7f50cb9fe53daa9737b786ab3646f04d0150dc50ef4e75f59509d83667ad5adb2060001b7f50cb9fe53daa9737b786ab3646f04d0150dc50ef4e75f59509d83667ad5adb2060001b6040518082815260200191505060405180910390a38060001b8160001b3373ffffffffffffffffffffffffffffffffffffffff1660001b7f50cb9fe53daa9737b786ab3646f04d0150dc50ef4e75f59509d83667ad5adb2060001b7f50cb9fe53daa9737b786ab3646f04d0150dc50ef4e75f59509d83667ad5adb2060001b6040518082815260200191505060405180910390a46002fffea265627a7a72315820bbd6f33802d8ce24584f29544a95aa5d7b907339edb1fabaf69ca1326c57c92664736f6c63430005110032608060405234801561001057600080fd5b50610123806100206000396000f3fe6080604052348015600f57600080fd5b506004361060285760003560e01c8063161e715014602d575b600080fd5b608c60048036036040811015604157600080fd5b81019080803573ffffffffffffffffffffffffffffffffffffffff169060200190929190803573ffffffffffffffffffffffffffffffffffffffff16906020019092919050505060a6565b604051808215151515815260200191505060405180910390f35b60008173ffffffffffffffffffffffffffffffffffffffff168373ffffffffffffffffffffffffffffffffffffffff16141560e3576001905060e8565b600090505b9291505056fea265627a7a723158206ca43ffce5996dcb8796e1f9d729debf22eded181240a1a8a314e4f791d01f2164736f6c63430005110032",
  "linkReferences": {},
  "deployedLinkReferences": {}
}