{
  "_format": "hh-sol-artifact-1",
  "contractName": "HashRipmd160",
  "sourceName": "contracts/ripemd160hash.sol",
  "abi": [
    {
      "inputs": [],
      "name": "checkHash",
      "outputs": [
        {
          "internalType": "bool",
          "name": "",
          "type": "bool"
        }
      ],
      "stateMutability": "view",
      "type": "function"
    },
    {
      "inputs": [],
      "name": "expectedHash",
      "outputs": [
        {
          "internalType": "bytes20",
          "name": "",
          "type": "bytes20"
        }
      ],
      "stateMutability": "view",
      "type": "function"
    }
  ],
  "bytecode": "0x60806040527f8476ee4631b9b30ac2754b0ee0c47e161d3f724c0000000000000000000000006000806101000a81548173ffffffffffffffffffffffffffffffffffffffff021916908360601c021790555034801561005d57600080fd5b5061028d8061006d6000396000f3fe608060405234801561001057600080fd5b50600436106100365760003560e01c806319483cd11461003b578063e3fcd53814610059575b600080fd5b610043610077565b604051610050919061015e565b60405180910390f35b6100616100b4565b60405161006e91906101b4565b60405180910390f35b60008060009054906101000a900460601b6bffffffffffffffffffffffff191661009f6100c5565b6bffffffffffffffffffffffff191614905090565b60008054906101000a900460601b81565b6000806040518060400160405280600c81526020017f48656c6c6f20576f726c64210000000000000000000000000000000000000000815250905060006003826040516101129190610240565b602060405180830381855afa15801561012f573d6000803e3d6000fd5b5050506040515160601b9050809250505090565b60008115159050919050565b61015881610143565b82525050565b6000602082019050610173600083018461014f565b92915050565b60007fffffffffffffffffffffffffffffffffffffffff00000000000000000000000082169050919050565b6101ae81610179565b82525050565b60006020820190506101c960008301846101a5565b92915050565b600081519050919050565b600081905092915050565b60005b838110156102035780820151818401526020810190506101e8565b60008484015250505050565b600061021a826101cf565b61022481856101da565b93506102348185602086016101e5565b80840191505092915050565b600061024c828461020f565b91508190509291505056fea2646970667358221220ce7c5a806fa2ee34fa00014b0c3b137158e917fe872d69401ef34371ac98525c64736f6c63430008180033",
  "linkReferences": {},
  "deployedLinkReferences": {}
}