{
  "_format": "hh-sol-artifact-1",
  "contractName": "Hash256",
  "sourceName": "contracts/sha256hash.sol",
  "abi": [
    {
      "inputs": [],
      "name": "checkHash",
      "outputs": [
        {
          "internalType": "bool",
          "name": "",
          "type": "bool"
        }
      ],
      "stateMutability": "view",
      "type": "function"
    },
    {
      "inputs": [],
      "name": "expectedHash",
      "outputs": [
        {
          "internalType": "bytes32",
          "name": "",
          "type": "bytes32"
        }
      ],
      "stateMutability": "view",
      "type": "function"
    }
  ],
  "bytecode": "0x60806040527f7f83b1657ff1fc53b92dc18148a1d65dfc2d4b1fa3d677284addd200126d906960001b60005534801561003757600080fd5b506102ac806100476000396000f3fe608060405234801561001057600080fd5b50600436106100365760003560e01c806319483cd11461003b578063e3fcd53814610059575b600080fd5b610043610077565b6040516100509190610141565b60405180910390f35b610061610089565b60405161006e9190610175565b60405180910390f35b6000805461008361008f565b14905090565b60005481565b6000806040518060400160405280600c81526020017f48656c6c6f20576f726c64210000000000000000000000000000000000000000815250905060006002826040516100dc9190610201565b602060405180830381855afa1580156100f9573d6000803e3d6000fd5b5050506040513d601f19601f8201168201806040525081019061011c9190610249565b9050809250505090565b60008115159050919050565b61013b81610126565b82525050565b60006020820190506101566000830184610132565b92915050565b6000819050919050565b61016f8161015c565b82525050565b600060208201905061018a6000830184610166565b92915050565b600081519050919050565b600081905092915050565b60005b838110156101c45780820151818401526020810190506101a9565b60008484015250505050565b60006101db82610190565b6101e5818561019b565b93506101f58185602086016101a6565b80840191505092915050565b600061020d82846101d0565b915081905092915050565b600080fd5b6102268161015c565b811461023157600080fd5b50565b6000815190506102438161021d565b92915050565b60006020828403121561025f5761025e610218565b5b600061026d84828501610234565b9150509291505056fea26469706673582212209167418c2ba1f0f45bcbc0503379cfd9085e568637f29b8a71d155228cee68f664736f6c63430008180033",
  "linkReferences": {},
  "deployedLinkReferences": {}
}